:100000000C942A000C943C000C943C000C943C0092
:100010000C943C000C943C000C943C000C943C0070
:100020000C943C000C943C000C943C000C943C0060
:100030000C943C000C943C000C943C000C943C0050
:100040000C943C000C943C000C943C000C943C0040
:100050000C943C0011241FBECFE5D4E0DEBFCDBF21
:1000600020E0A0E6B0E001C01D92A236B207E1F7A1
:100070000E9479000C947D000C940000089508956E
:1000800091E09BBB8FEF8ABB98BB87BB95BB84BBC2
:1000900092BB81BB81E090E0880F991F811521E020
:1000A000920711F481E090E0282F20952BBB28BB0C
:1000B00025BB22BBF1CF80E288BB8FEF87BBFFCF90
:1000C00080E288BB8FEF87BB81E090E0282F2095EE
:1000D00028BB21E08227FACF1092610010926000C5
:1000E00089B7816089BF82E083BF8AE682BF789446
:0E00F00008950E946C000E944000F894FFCF1B
:00000001FF
