:1000000047C061C060C05FC05EC05DC05CC05BC017
:100010005AC059C058C057C056C055C054C053C02C
:1000200052C051C050C04500008200004000200076
:1000300001080006040001485454502F312E30208E
:10004000323030204F4B0D0A436F6E74656E742D45
:10005000547970653A20746578742F68746D6C0DEE
:100060000A0D0A3C68746D6C3E3C626F64793E0018
:100070004D41433A20002049503A20003C2F626F06
:1000800064793E3C2F68746D6C3E003C42523E00E9
:1000900011241FBECFE5D4E0DEBFCDBF10E0A0E647
:1000A000B0E0E4E7F2E102C005900D92AA3BB1078F
:1000B000D9F714E0AAEBB0E001C01D92AF32B1074E
:1000C000E1F736D7D5C89CCF05C00000615070401D
:1000D000804090406115710581059105B1F7089543
:1000E0002F923F924F925F926F927F928F929F9248
:1000F000AF92BF92CF92DF92EF92FF920F931F9336
:10010000CF93DF935C01D901C8013701C42ED52EEE
:10011000E62EF72EE501882499243AE0232E312C8F
:10012000412C512C10E308C0C81AD90AEA0AFB0A6C
:100130001F5F21E0822E912CC816D906EA06FB0625
:1001400098F7BC01CD01A201910170D8DA01C90173
:100150006114710419F48114910409F019932115A3
:10016000310541055105F1F6CA19DB09CE01DF91D0
:10017000CF911F910F91FF90EF90DF90CF90BF90A4
:10018000AF909F908F907F906F905F904F903F9037
:100190002F900895EF92FF920F931F93790100E043
:1001A0001AEC2AE93BE39CDF1F910F91FF90EF903F
:1001B0000895EF92FF920F931F93790100EA16E8DA
:1001C00021E030E08DDF1F910F91FF90EF900895B7
:1001D000EF92FF920F931F93790108EE13E020E056
:1001E00030E07EDF1F910F91FF90EF900895FC01AA
:1001F000862F82958F708A3010F4805D01C0895CF3
:1002000080836F706093BA006A3010F4605D01C043
:10021000695C618382E090E008958FB9779BFECF9F
:100220000895C298962F9F71982B9FB9779BFECF08
:100230001FB8779BFECF67FF03C01FB8779BFECF29
:10024000C29A8FB10895C2986F71682B6FB9779B6E
:10025000FECF4FB9779BFECFC29A08950F931F939D
:10026000CF93DF93EC018B01C2980097A1F08AE352
:10027000D4DF1FB8F801CE0105C0779BFECF2FB1A8
:100280001FB821930197C9F72197C00FD11F779B02
:10029000FECF8FB18883C29ADF91CF911F910F91CA
:1002A00008950F931F93DF93CF9300D0CDB7DEB7A0
:1002B0008C01C298009799F08AE769837A83ADDF51
:1002C0006981E62F7A81F72F819103C08191779B15
:1002D000FECF8FB901501040C9F7779BFECFC29A6D
:1002E0000F900F90CF91DF911F910F9108951F9361
:1002F000182F282F30E0207630706091BF0070E01A
:100300002617370771F080EA6FE143E09CDF107633
:100310001093BF00412F42954695477080E86FE1EA
:1003200092DF1F910895DF93CF930F92CDB7DEB781
:10033000682F6983DCDF80E0698173DF0F90CF91E4
:10034000DF9108950F931F93182FEDDF082F812F52
:100350008F5FE9DF382F20E0200F311DC9011F9189
:100360000F9108951F93DF93CF930F92CDB7DEB710
:10037000182F6983BCDF80E4612F498164DF0F900F
:10038000CF91DF911F9108951F93DF93CF930F9229
:10039000CDB7DEB7182F7983E5DF812F8F5F7981A5
:1003A000672FE0DF0F90CF91DF911F910895682FA5
:1003B00084EDD8DF82ED61E0D5DF8CE38A95F1F73B
:1003C0008AEEB1DF80FDFCCF82ED60E0CBDF89ED0E
:1003D000AADF90E008951F93DF93CF930F92CDB7DC
:1003E000DEB7982F162F84ED692F7983BBDF86ED5A
:1003F000612FB8DF87ED7981672FB4DF03C08CE30D
:100400008A95F1F78AEE8FDF80FDF9CF0F90CF91BB
:10041000DF911F910895682F677085E7A3DF089526
:1004200082E781DF0895CF93DF93EC011092BB0048
:10043000BA9AC29A87B3886287BBBC98C398C5989A
:1004400080E58DB9709A709A82E4DED6E9DFDCD659
:100450008DE0A7D68FEF60E04FEFF5DE8FE697E1F6
:100460000197F1F700C0000080E06DE1DADE88233B
:10047000D9F31092BE001092BD001092BC0088E02B
:1004800060E070E081DF8CE060E070E07DDF8AE0BA
:100490006EEF73E179DF84E06FEF79E175DF86E07D
:1004A0006FEF7FE171DF88E361EB5CDF88E26FE390
:1004B00070E36ADF88E267EF79EF66DF80EC6DE07A
:1004C00051DF81EC60E04EDF80E862EC42E3BBDEAE
:1004D00088E262E17CE058DF84EC62E143DF8AEC91
:1004E0006CED75E051DF84EE68813CDF85EE69815B
:1004F00039DF82EE6A8136DF83EE6B8133DF80EE97
:100500006C8130DF81EE6D812DDF80E160E071E094
:1005100062DF8FE1ECDE80E86BE140EC94DE80E8A6
:100520006FE144E090DEDF91CF91089581E13FDFFC
:1005300021E0009709F420E0822F08950F931F9384
:10054000CF93DF93EC018B0182E06FEF79E11CDF49
:10055000BE016150764E86E017DF8AE760E040E03A
:1005600072DECE01B8019DDE80E86FE140E86BDE0F
:1005700080EA6FE140E867DE80EA6CE14AE063DE32
:1005800080E86BE148E85FDE80E86FE148E05BDE31
:1005900087E592E00197F1F700C0000001C000007C
:1005A00080E06FE13EDE83FDFACF03C094E09A95D0
:1005B000F1F78CE1B8DE8A70C9F380EA6CE148E0BB
:1005C00042DEDF91CF911F910F910895EF92FF923C
:1005D0000F931F93DF93CF9300D000D000D0CDB7FF
:1005E000DEB78C017B018091BC008130A1F4609169
:1005F000BD007091BE006115710529F48CE06EEFAD
:1006000073E1C2DE06C0615070408CE0BDDE779BB6
:10061000FECF1092BC0089E386DE882391F16091C1
:10062000BD007091BE0080E0AFDE88EC8A95F1F7E6
:1006300086E090E0BE016F5F7F4F10DE8B819C8172
:1006400029813A813093BE002093BD002D8127FF80
:100650000EC0015010408017910708F48C01C801AA
:10066000B701FCDDF701E00FF11F108202C000E0CE
:1006700010E081E08093BC0080E86EE140E4E3DDBF
:1006800002C000E010E0C80126960FB6F894DEBF65
:100690000FBECDBFCF91DF911F910F91FF90EF90D3
:1006A00008958091BB000895CF92DF92EF92FF9260
:1006B0000F931F93CF93DF936C01413019F4CB015B
:1006C000099604C0423029F4CB010297A0E0B0E0C3
:1006D00003C080E090E0DC01EB01F60116C0E08091
:1006E000FF2400E010E0102F0F2DFE2CEE242181BE
:1006F00030E040E050E0E22AF32A042B152B8E0D67
:100700009F1DA01FB11F32962297C230D10538F726
:10071000FB01EE7FEC0DFD1D60FF0FC0208130E07E
:1007200040E050E0542F432F322F222702C0A07008
:10073000B070820F931FA41FB51F9D01442755273A
:10074000211531054105510591F79C012095309502
:10075000C901DF91CF911F910F91FF90EF90DF9032
:10076000CF900895009741F0AFECB0E0FC0186E037
:1007700001900D928150E1F70895009749F0DC0156
:10078000EBECF0E08D91819380E0EF3CF807D1F73E
:100790006115710549F0DB01E4E6F0E08D9181938C
:1007A00080E0E836F807D1F70895CF93DF93282F3C
:1007B000392FE901EBECF0E0A4E6B0E0299181915A
:1007C0009D918227892331F480E0EF3CF807B1F74F
:1007D00080E001C081E0DF91CF910895DC015A965D
:1007E000862F972FFC0180E02D919191291729F4F4
:1007F0008F5F8430C9F781E0089580E00895FC019F
:100800006932710598F08485883081F48585863059
:1008100069F4B696ABECB0E091918D91981741F4E4
:1008200080E0AF3CB807C1F781E0089580E008950B
:1008300080E00895FC016A327105B0F0848588304B
:1008400099F48585882381F48685853469F47E96BC
:10085000ABECB0E091918D91981741F480E0AF3C02
:10086000B807C1F781E0089580E0089580E0089519
:10087000E82FF92FAFECB0E0868181938D918583CD
:1008800080E0A53DB807C1F70895CF93DF93EC0151
:10089000188E198E80E48C8B1D8A8E8BCE010E965D
:1008A00064E170E040E000DF988F898FDF91CF91A5
:1008B0000895ABECB0E0FC017A96208124832D9161
:1008C000219320E0AF3CB207C1F7DFDF0895FC01C0
:1008D000BA9684E09291690F711D948164834423D8
:1008E00011F0908301C01082815019F0672F772793
:1008F000F1CF0895CF93DF93EC018CA19AA19CA333
:100900008AA38DA19BA19DA38BA3CE01E0DF1AAA90
:100910001BAA80E58EA7DF91CF910895CF93DF9337
:10092000EC01A6DF1C8A82E08D8BAFECB0E0FE010B
:100930007696808182878D91819380E0A53DB8076E
:10094000C1F7ABECB0E0FE017C96808182878D918F
:10095000819380E0AF3CB807C1F78AE290E0BE0126
:10096000EDDDDF91CF9108950F931F93CF93DF9328
:10097000EC018B017DDFCE019CDF1AA28CA1883FA8
:1009800018F08DA18F5F8DA38CA1885F8CA3C80107
:10099000BE01D4DDDF91CF911F910F910895FC012D
:1009A000218930E0908980E0282B392B86A582951B
:1009B0008F7090E0880F991F880F991F281B390BA3
:1009C0002451304037FF02C020E030E0C9010895D3
:1009D000DB01D696A80FB91F03C0ED936F5F7F4F61
:1009E000FA014F5F5F4FE491EE23B9F7CB01089511
:1009F000DA01FB01F696E80FF91F822F03C09D91E3
:100A0000919381508823D9F7620F711DCB0108950E
:100A1000DA010D900020E9F79D0121503040241BA0
:100A2000350BE6DF08950F931F93DF93CF9300D02C
:100A30000F92CDB7DEB78C014B8369837A8318DFC1
:100A40004B81842F8061F80187A769817A814430C6
:100A500029F06115710511F461E070E0C80141E011
:100A600049DFF801108A88E2818BC80122DF84E027
:100A7000F80180AB11AAC8014A966CE170E042E02F
:100A800013DEF80192AB83AB86E390E0B80156DD4C
:100A90000F900F900F90CF91DF911F910F910895BC
:100AA0000F931F93CF93DF93EC018B01CB018896BB
:100AB000988B898BCE01E9DE1AAA1BAAB801645E65
:100AC0007F4FCE014A9642E0EFDD9AAB8BABC80177
:100AD000C696BE0133DDDF91CF911F910F9108952E
:100AE000CF92DF92EF92FF920F931F93DF93CF93FA
:100AF00000D0CDB7DEB76C01F42EE52E69837A8382
:100B0000B7DE69817A81062F172F0D3D110510F090
:100B10000CED10E0F601108AC8014C96818BC601DD
:100B2000C8DEF60182A184A383A185A3E2A2F3A279
:100B300016A2C801089687A310A611A6B801605F87
:100B40007F4FC6014A9641E0AFDDF60190A781A72D
:100B5000C8018A96B601F2DC0F900F90CF91DF9119
:100B60001F910F91FF90EF90DF90CF900895E62FA7
:100B7000F72FDC019A9650E003C061916D935F5F9F
:100B80005417D8F3642F70E0A901AADF0895611506
:100B9000710549F0DB01EBECF0E02D91219320E0B1
:100BA000EF3CF207D1F7009709F0DCDD81E080939C
:100BB000C000109261001092600008959093C700E9
:100BC000809362000895CF93DF93EC0151DE188A81
:100BD0008CE2898BCE016DDE82E18FA7CE0161E0D0
:100BE00070E040E087DE1EA21FA28091630088A70C
:100BF00019A68D5F8093630082E08EAB84E08FAB9B
:100C000085E088AF19AE80E68EA78AE088AB19AA86
:100C1000CE014A9660E270E042E046DD9AAB8BABD3
:100C20008AE390E0BE018ADCDF91CF9108950F93B3
:100C30001F93CF93DF93EC018B016091C8007091FB
:100C4000C90040E0F0DE89E18FA7CE01B80128DFBE
:100C5000DF91CF911F910F910895DC0107C0FA0138
:100C600084918D934F5F5F4F6150704061157105A6
:100C7000B1F70895EF92FF920F931F93CF93DF93F5
:100C8000EC017B018091CB008823D9F1DE010FECD0
:100C900010E0F8018FEF8D93919115969C93159725
:100CA00020E0E53DF207B9F788E08C8786E08D8784
:100CB000CE010E9668E070E04FE250E0CEDFFE011C
:100CC0007696D8018D918D0181931186B0E0053D16
:100CD0001B07B9F78E2D9F2DABECB0E0AE01445E43
:100CE0005F4FFC012191CF01FA0122872D912193C1
:100CF000AF01F0E0AF3CBF07A1F78AE290E0BE0190
:100D00001DDCDF91CF911F910F91FF90EF9008951F
:100D100081E09091C000923009F480E008955093F2
:100D20002E0440932D0421E02093C0006093CA005C
:100D3000282F392FD901E1ECF0E08D91819380E0EB
:100D4000E53CF807D1F708959093C6008093C5005D
:100D50000895FF920F931F93CF93DF93EC018B01C4
:100D60008F89863079F59CA18091C700981751F53D
:100D70009DA180916200981729F5FFA4F1FE03C0A0
:100D8000CE0121DF1FC0F4FE1DC0CE0108DE90930E
:100D9000C9008093C800009771F02EA522952F708E
:100DA00030E0220F331F220F331F2E5D3F4F0217FB
:100DB000130750F407C0F0FE05C0CE0160E070E0FC
:100DC00040E031DE20E030E0C901DF91CF911F919A
:100DD0000F91FF9008950F931F93CF93DF93EC0132
:100DE0008B016115710501F58091C000857091F04E
:100DF0008091600090916100009761F497DB8823F7
:100E000049F0CE0161EC70E035DF8091C000886070
:100E10008093C00080916000909161000196909352
:100E200061008093600034C0EADC882379F08D890A
:100E3000813011F4CE0172DD8091C00083FF28C0A3
:100E40008D89823029F58093C00022C0CE01B8017F
:100E5000F1DC8823E9F08F89813081F49AA1983000
:100E600069F4E091C500F091C600309719F0CE0109
:100E70004A960995CE01B80177DD0AC006331105FF
:100E800010F4863029F4CE01B80163DF9C0102C062
:100E900020E030E0C901DF91CF911F910F910895BB
:100EA00085E886B908951F93CF93DF93C8E6D0E015
:100EB000CE0190D18DE075D18AE073D189E333DA28
:100EC000182F8BE690E086D1812F9ED18DE069D1DD
:100ED0008AE067D18DE127DA182F84E790E07AD194
:100EE000812F92D18DE05DD18AE05BD18CE11BDA5C
:100EF000182F8BE790E06ED1812F86D18DE051D1F4
:100F00008AE04FD18BE10FDA182F80E890E062D1B0
:100F1000812F7AD18DE045D18AE043D1CE015AD1DB
:100F20008DE03FD18AE03DD1DF91CF911F910895AF
:100F30006F927F928F929F92AF92BF92CF92DF92E9
:100F4000EF92FF920F931F93DF93CF930F92CDB742
:100F5000DEB723D185E886B9B89AC0988FEB94EDB7
:100F6000A1E081509040A040E1F700C00000C09A8D
:100F700085E890E068E070E01AD186EA90E053DA04
:100F800068E97AE380E090E09FD84ADA082F3CD104
:100F90008DE007D18AE005D1063009F4A89A60EF08
:100FA00079E482E090E090D886EA90E06CEA70E024
:100FB000EEDD80E590E002DE60EF79E482E090E033
:100FC00083D84AE3942E3EE2832E1092B100109211
:100FD000B0008CEB92E065ED70E0F8DA3C0185ED55
:100FE00090E0B301F8DE7C01009779F383010450AF
:100FF0001040081B190B68010138110518F020E892
:10100000C22ED12CD701AB52BF4F92E9A92E93E04B
:10101000B92EC6018A0D9B1DF50102C02D912193A9
:10102000E817F907D9F780E990E0D4D0C701F6D0E6
:10103000C301F4D08DE0B5D08AE0B3D0C7018B52A4
:101040009F4FB801B4D08DE0ACD08AE0AAD082E93D
:1010500093E0B601ACD085ED90E060E070E047E34E
:1010600050E0B6DC85ED90E068E370E040E750E0EA
:10107000AFDC0BED10E026E08DE3E82EF12CD8017B
:101080006D918D0182E194E02983B1D8F701EB5293
:10109000FF4F8091120486AB0894E11CF11CF7010C
:1010A000EB52FF4F8091130486AB0894E11CF11CB6
:1010B00029812B3039F0F701EB52FF4F96AA0894A3
:1010C000E11CF11C2F5F2C30D1F685ED90E0B701CB
:1010D00046E750E07DDCE5E0F0E0EE0EFF1E0FEEAF
:1010E00010E020E0D8016D918D0182E194E0298328
:1010F0007ED8F701EB52FF4F8091120486AB089423
:10110000E11CF11CF701EB52FF4F8091130486ABF9
:101110000894E11CF11C2981233039F0F701EB52CE
:10112000FF4F86AA0894E11CF11C2F5F2430D1F6F2
:1011300085ED90E0B7014BE850E04ADC87010C5F99
:101140001F4F86E990E046D0C80168D0D701A15F63
:10115000BE4F80E090E007C0F50121915F012D9323
:101160000F5F1F4F01968C159D0538F498012A5C7E
:101170003F4FF2E02C3B3F0778F38FE990E02AD015
:10118000C8014CD085ED90E0B8014CE750E020DC80
:10119000BC0185ED90E04BDD18CF539A8CE089B906
:1011A00008955D9BFECF8CB95D9BFECF08950F9394
:1011B0001F93CF93DF93EC018B0104C08991F1DF82
:1011C0000150104001151105C9F7DF91CF911F9112
:1011D0000F910895DC010D900020E9F7BD016150E9
:1011E0007040681B790B613228F082EB90E067E079
:1011F00070E001C070E0DBDF08958A3010F4805D9C
:1012000001C0895CCEDF08951F93182F82958F70DF
:10121000F4DF812F8F70F1DF1F9108951F93182F36
:10122000892FF2DF812FF0DF1F910895A1E21A2E9E
:10123000AA1BBB1BFD010DC0AA1FBB1FEE1FFF1F7A
:10124000A217B307E407F50720F0A21BB30BE40BCA
:10125000F50B661F771F881F991F1A9469F7609511
:101260007095809590959B01AC01BD01CF010895CB
:04127000F894FFCF20
:101274000100500AFFFFFFFF2D2D0045504B544342
:101284004E543A0045535441543A004549523A00A9
:101294004549453A000D0A496E69742D3E3A2000CD
:1012A400506F733A2000506F735858583A200050CA
:1012B4006F73323A2000545558100324C0A8018398
:0A12C400660050726F626C656D00E9
:00000001FF
