:1000000012C021C020C01FC01EC01DC01CC01BC00C
:100010001AC019C018C017C016C015C014C013C02C
:1000200012C011C010C011241FBECFE5D4E0DEBF46
:10003000CDBF20E0A0E6B0E001C01D92A336B2071C
:10004000E1F766D06BC0DCCF90E890936200C29875
:10005000E3ECF9E03197F1F700C000009091620005
:100060009923D9F0C19890916200982311F0C09A19
:1000700001C0C098E7E8F3E13197F1F700C0000054
:10008000C19AE7E8F3E13197F1F700C000009091E1
:100090006200969590936200E1CFC29A089520E0A5
:1000A00030E83093610020936000C298E3ECF9E0FF
:1000B0003197F1F700C0000020916000309161009D
:1000C000232B21F1C19820916000309161002823F9
:1000D0003923232B11F0C09A01C0C098E7E8F3E15F
:1000E0003197F1F700C00000C19AE7E8F3E13197DA
:1000F000F1F700C00000209160003091610036955A
:1001000027953093610020936000D6CFC29A08955E
:100110008FEF87BB87E797E7C2DFFFCFF894FFCF6A
:00000001FF
