:1000000012C021C020C01FC01EC01DC01CC01BC00C
:100010001AC054C018C017C016C015C014C013C0F1
:1000200012C011C010C011241FBECFE5D4E0DEBF46
:10003000CDBF10E0A0E6B0E001C01D92A236B1072E
:10004000E1F75CD061C0DCCF0895089591E098BBE2
:100050008FEF87BB95BB84BB92BB81BB81E090E0F7
:10006000880F991F21E08030920711F481E090E021
:10007000282F209528BB25BB22BBF2CF80E288BB6E
:100080008FEF87BBFFCF80E288BB8FEF87BB81E01C
:1000900090E021E030E0482F409548BB822793272D
:1000A000FACF109261001092600089B7816089BF19
:1000B00082E083BF8AE682BF789408951F920F92F0
:1000C0000FB60F9211248F939F938AE682BF80917F
:1000D00060009091610001969093610080936000B0
:1000E0008230910521F410926100109260009F917E
:1000F0008F910F900FBE0F901F901895D2DFA6DF43
:0C010000C2DF80E090E00895F894FFCF8B
:00000001FF
