:1000000012C019C018C017C016C015C014C013C044
:1000100012C011C010C00FC00EC00DC00CC00BC06C
:100020000AC009C008C011241FBECFE5D4E0DEBF5E
:10003000CDBF20D04BC0E4CFC39A87E893E10197AE
:10004000F1F700C00000C39887E893E10197F1F74A
:1000500000C000000895C29A8DEE92E00197F1F77A
:1000600000C00000C2988DEE92E00197F1F700C049
:1000700000000895CF93DF93CDB7DEB760970FB63A
:10008000F894DEBF0FBECDBF8FEF87BBCE010196C8
:100090007C0180E1F70111928A95E9F781E090E017
:1000A0009A838983C4986E01F1E1CF0ED11C870138
:1000B000F80180810E5F1F4F80FDC09A80FFC098BD
:1000C000BBDFC9DF0C151D0599F7F1CFF894FFCF01
:00000001FF
