:1000000012C021C020C01FC01EC01DC01CC01BC00C
:100010001AC017C118C017C016C015C014C013C02D
:1000200012C011C010C011241FBECFE5D4E0DEBF46
:10003000CDBF10E0A0E6B0E001C01D92A236B1072E
:10004000E1F732D13DC1DCCFDF93CF9300D000D0B8
:10005000CDB7DEB784E690E09A83898388EE93E09B
:100060009C838B8314C089819A8101979A838983A9
:1000700088EE93E09C838B8305C08B819C810197E4
:100080009C838B838B819C8118161906B4F389811C
:100090009A81181619063CF30F900F900F900F904D
:1000A000CF91DF910895DF93CF9300D000D0CDB7EB
:1000B000DEB781E090E09A83898388EE93E09C83A9
:1000C0008B8314C089819A8101979A83898381E007
:1000D00090E09C838B8305C08B819C8101979C83DE
:1000E0008B838B819C8118161906B4F389819A81C0
:1000F000181619063CF30F900F900F900F90CF91A8
:10010000DF910895DF93CF9300D0CDB7DEB788E3BA
:1001100090E021E0FC01208387E390E02FEFFC01D9
:10012000208385E390E021E0FC01208384E390E0DC
:100130002FEFFC01208382E390E021E0FC0120838B
:1001400081E390E02FEFFC01208381E090E09A832F
:1001500089837ADF89819A81880F991F9A8389839D
:1001600089819A81F1E080309F0721F481E090E05D
:100170009A83898388E390E029812095FC0120837C
:1001800085E390E029812095FC01208382E390E0C3
:1001900029812095FC012083DCCFDF93CF93CDB75D
:1001A000DEB788E390E020E2FC01208387E390E063
:1001B0002FEFFC012083FFCFDF93CF9300D0CDB78B
:1001C000DEB788E390E020E2FC01208387E390E043
:1001D0002FEFFC01208381E090E09A83898363DF25
:1001E00088E390E029812095FC01208381E090E064
:1001F00029813A812130310511F480E090E09A8321
:100200008983EDCFDF93CF93CDB7DEB71092610036
:100210001092600089E590E029E530E0F901208145
:100220002160FC01208383E590E022E0FC01208333
:1002300082E590E02AE6FC0120837894CF91DF915B
:1002400008951F920F920FB60F9211242F938F9340
:100250009F93EF93FF93DF93CF93CDB7DEB782E504
:1002600090E02AE6FC01208380916000909161007B
:10027000019690936100809360008091600090915E
:1002800061008230910521F41092610010926000AB
:10029000CF91DF91FF91EF919F918F912F910F90CF
:1002A0000FBE0F901F901895DF93CF93CDB7DEB799
:1002B000A9DF28DF81DF80E090E0CF91DF91089512
:0402C000F894FFCFE0
:00000001FF
